:020000040000fa
:080000000002040000000000f2
:020000040000fa
:0400080032030000bf
:020000040000fa
:04000c0010030000dd
:020000040000fa
:0400100022030000c7
:020000040000fa
:0400140018030000cd
:020000040000fa
:040018002a030000b7
:020000040000fa
:04001c0032030000ab
:020000040000fa
:0400200032030000a7
:020000040000fa
:0400240032030000a3
:020000040000fa
:04002800320300009f
:020000040000fa
:04002c00320300009b
:020000040000fa
:040030003203000097
:020000040000fa
:040034003203000093
:020000040000fa
:04003800320300008f
:020000040000fa
:04003c00320300008b
:020000040000fa
:040040003203000087
:020000040000fa
:040044003203000083
:020000040000fa
:04004800320300007f
:020000040000fa
:04004c00320300007b
:020000040000fa
:040050003203000077
:020000040000fa
:040054003203000073
:020000040000fa
:04005800320300006f
:020000040000fa
:04005c00320300006b
:020000040000fa
:040060003203000067
:020000040000fa
:040064003203000063
:020000040000fa
:04006800320300005f
:020000040000fa
:04006c00320300005b
:020000040000fa
:040070003203000057
:020000040000fa
:040074003203000053
:020000040000fa
:04007800320300004f
:020000040000fa
:04007c00320300004b
:020000040000fa
:040080003203000047
:020000040000fa
:040084003203000043
:020000040000fa
:04008800320300003f
:020000040000fa
:04008c00320300003b
:020000040000fa
:040090003203000037
:020000040000fa
:040094003203000033
:020000040000fa
:04009800320300002f
:020000040000fa
:04009c00320300002b
:020000040000fa
:0400a000cc0200008e
:020000040000fa
:0400a4003203000023
:020000040000fa
:0400a800320300001f
:020000040000fa
:0400ac00320300001b
:020000040000fa
:0400b0003203000017
:020000040000fa
:0400b4003203000013
:020000040000fa
:0400b800320300000f
:020000040000fa
:0400bc00320300000b
:020000040000fa
:0400c0003203000007
:020000040000fa
:0400c4003203000003
:020000040000fa
:0400c80032030000ff
:020000040000fa
:0400cc0032030000fb
:020000040000fa
:0400d00032030000f7
:020000040000fa
:0400d40032030000f3
:020000040000fa
:0400d80032030000ef
:020000040000fa
:0400dc0032030000eb
:020000040000fa
:0400e00032030000e7
:020000040000fa
:0400e40032030000e3
:020000040000fa
:0400e80032030000df
:020000040000fa
:0400ec0032030000db
:020000040000fa
:0400f00032030000d7
:020000040000fa
:0400f40032030000d3
:020000040000fa
:0400f80032030000cf
:020000040000fa
:0400fc0032030000cb
:020000040000fa
:0401000032030000c6
:020000040000fa
:0401040032030000c2
:020000040000fa
:0401080032030000be
:020000040000fa
:04010c0032030000ba
:020000040000fa
:0401100032030000b6
:020000040000fa
:0401140032030000b2
:020000040000fa
:0401180032030000ae
:020000040000fa
:04011c0032030000aa
:020000040000fa
:0401200032030000a6
:020000040000fa
:0401240032030000a2
:020000040000fa
:04012800320300009e
:020000040000fa
:04012c00320300009a
:020000040000fa
:040130003203000096
:020000040000fa
:040134003203000092
:020000040000fa
:0402080032030000bd
:020000040000fa
:04020c0032030000b9
:020000040000fa
:0402100032030000b5
:020000040000fa
:0402140032030000b1
:020000040000fa
:0402180032030000ad
:020000040000fa
:04021c0032030000a9
:020000040000fa
:0402200032030000a5
:020000040000fa
:0402240032030000a1
:020000040000fa
:04022800320300009d
:020000040000fa
:04022c003203000099
:020000040000fa
:040230003203000095
:020000040000fa
:040234003203000091
:020000040000fa
:04023800320300008d
:020000040000fa
:04023c003203000089
:020000040000fa
:040240003203000085
:020000040000fa
:040244003203000081
:020000040000fa
:04024800320300007d
:020000040000fa
:04024c003203000079
:020000040000fa
:040250003203000075
:020000040000fa
:040254003203000071
:020000040000fa
:04025800320300006d
:020000040000fa
:04025c003203000069
:020000040000fa
:040260003203000065
:020000040000fa
:040264003203000061
:020000040000fa
:04026800320300005d
:020000040000fa
:04026c003203000059
:020000040000fa
:040270003203000055
:020000040000fa
:040274003203000051
:020000040000fa
:04027800320300004d
:020000040000fa
:04027c003203000049
:020000040000fa
:040280003203000045
:020000040000fa
:040284003203000041
:020000040000fa
:04028800320300003d
:020000040000fa
:04028c003203000039
:020000040000fa
:040290003203000035
:020000040000fa
:040294003203000031
:020000040000fa
:04029800320300002d
:020000040000fa
:04029c003203000029
:020000040000fa
:0402a0003203000025
:020000040000fa
:0402a4003203000021
:020000040000fa
:0402a800320300001d
:020000040000fa
:0402ac003203000019
:020000040000fa
:0402b0003203000015
:020000040000fa
:0402b4003203000011
:020000040000fa
:0402b800320300000d
:020000040000fa
:0402bc003203000009
:020000040000fa
:0402c0003203000005
:020000040000fa
:0402c4003203000001
:020000040000fa
:0402c80032030000fd
:020000040000fa
:0402cc0032030000f9
:020000040000fa
:0402d00032030000f5
:020000040000fa
:0402d40032030000f1
:020000040000fa
:0402d80032030000ed
:020000040000fa
:0402dc0032030000e9
:020000040000fa
:0402e00032030000e5
:020000040000fa
:0402e40032030000e1
:020000040000fa
:0402e80032030000dd
:020000040000fa
:0402ec0032030000d9
:020000040000fa
:0402f00032030000d5
:020000040000fa
:0402f40032030000d1
:020000040000fa
:0402f80032030000cd
:020000040000fa
:0402fc0032030000c9
:020000040000fa
:0403000032030000c4
:020000040000fa
:0403040032030000c0
:020000040000fa
:0403080032030000bc
:020000040000fa
:04030c0032030000b8
:020000040000fa
:0403100032030000b4
:020000040000fa
:0403140032030000b0
:020000040000fa
:0403180032030000ac
:020000040000fa
:04031c0032030000a8
:020000040000fa
:0403200032030000a4
:020000040000fa
:0403240032030000a0
:020000040000fa
:04032800320300009c
:020000040000fa
:04032c003203000098
:020000040000fa
:040330003203000094
:020000040000fa
:040334003203000090
:020000040000fa
:100400002f8720000e7f22000e01880000000000d0
:10041000000020000000e000020032000001200087
:100420002002880014000700900007000000e00090
:1004300003003a00a0232100010020000200370041
:100440000000200001002000810f70000100320038
:1004500014000700000020000000e000020032004d
:100460000000020000000000680f02000000000011
:100470000040da000000fe004440a900c00b20004c
:100480000000e0000300320000002000a00188000e
:100490004440a800000006008a1f78008b1f7800e7
:1004a0000000060091018800800478000000eb0045
:1004b0001a003700e284440032a0b4009905ba0063
:1004c000e284440032a0b4009906ba00e2844400f9
:1004d00032a0b4000006eb00476fde00fd07b2005b
:1004e000636ce10003003a00ebff07000000eb0043
:1004f0000a003700606ce10004003a00005deb0088
:100500008b05e900fdff3e00040037006168e10053
:10051000010032000086eb000b00070019c7ba008b
:100520001905ba000e04e00003003a000a00e000da
:10053000e0ff3a0000000600fe07b2009e018800be
:100540008a047800f5ff3700395dba008b05e900b1
:100550000c003200295dba008b05e900080032006a
:100560000c00e00003003a00e284440032a0b40032
:10057000f5ff370019ddba008b05e900faff3a00f4
:100580008904e800e184440032a0b40000000600c1
:1005900076030400000000003600f800809fbe00d3
:1005a000829fbe00849fbe00869fbe000000fa00ae
:1005b000004080000000e80000408800014080000a
:1005c00020872000808f5000020039002086200004
:1005d000004088000140800010408000808f500063
:1005e00003003a0040d32800130707000400370037
:1005f00000408000b11180008140780001487800ff
:1006000087c0a9000080fa004f03be004f02be0061
:100610004f01be004f00be003600f900004006004a
:100620003600f8008020a9000000eb000c0807004d
:100630003600f8000e0807008040a90010002000d6
:10064000070807003600f8008060a900200020009d
:10065000030807003600f8008080a9003000200061
:10066000ff0707000040da000000fe000000050060
:10067000839f68000100e00002003d006000100060
:10068000e08018000300e00002003d00600111005e
:10069000e0811900050007004f00e00002003b0068
:1006a00060001000e0801800000006006022b80022
:1006b000060220000000d0008180d2000482d20017
:1006c0008582d2000000a0000202520083825a00fc
:1006d000030031000202420083824a000000a100b0
:1006e0000603e900f3ff3a0000000600881f7800c7
:1006f0000204780008017800c400070008004000e8
:100700004f047800000006000000fa00881f7800ff
:1007100000047800ea8157003fb99700880078000c
:1007200060372000070007000000e00002003500ed
:100730008040eb00017478004f0478000080fa00dc
:10074000000006006200fa00889fbe008a1f780041
:1007500000057800810478000204780083007800a6
:1007600080f92f000f004000770107009a979f0043
:10077000a9979f000000eb00b09f9f001885fb0029
:100780008a04fb000a05ea004f55de0050022000f3
:10079000808f54000d003200e10f55000b003a002d
:1007a0000a017800880078002f9097009f919700a9
:1007b00003000100a0979f000000e0008e003200bf
:1007c0003f9897000000e800b09f9f000a04440093
:1007d00050022000808f5400040032000900e00025
:1007e000e6ff3a003f989700840037000000eb00d6
:1007f000909f9f00809f9f00f0979f00e0979f0031
:10080000d0979f00c0979f0007003700c185200048
:1008100001005000000040000185200061007800c8
:10082000df98970001007000d09f9f008804780037
:1008300009047800384578008a00fb00c085200054
:10084000790007000000e000f0ff3a00a1c2b30009
:10085000814f55000e003a00cf8897000180e900d3
:10086000c08f9f0010007800c09f9f000000e00034
:1008700005003d000000ea00c09f9f005f989700c0
:100880000020a000d09f9f000904e8000f0037005f
:10089000c09f9f000000eb0005003700f2ff27001b
:1008a000820f5000020032006a01b900028040004d
:1008b0000904780088047800b900fb000103b10046
:1008c000e98f5000f5ff3600c09f9f00e0c2b300e3
:1008d000984f1000020032000080eb001900370032
:1008e000a0c2b300d84f100007003a00cf8897008d
:1008f0000180e900c08f9f0010007800a09f9f003a
:100900000804e800100037000000eb00a09f9f00e3
:100910008800780005003700f3ff2700830f5000a0
:10092000020032006a02b9000400410001047800ac
:10093000880078003101fb000203b100e90f51008b
:10094000f5ff3600a09f9f00984478008900fb00c7
:1009500080842000340007000000e0000200320024
:100960000804e800010037008044eb00c97f9f00c5
:1009700080c6b30080cf540004003a0098cf140022
:100980000a003a006640500006003700c0c6b300b7
:1009900080cf540005003a0098cf140003003a00bd
:1009a00065404000c07f9f000804e8001801fb007c
:1009b000e3fb2f008f81410081f92f008f804000e1
:1009c000a0f92f000f004000e10007000000e00048
:1009d00009003a00e1fb2f008f804000a0f92f00b2
:1009e0000f0040001c0007000000e000020035007e
:1009f0000804e80061ff37000080eb004f05780035
:100a00004f04be000080fa0000000600800178005c
:100a100002003700b15978000201e9000200e0004d
:100a2000fcff3a0000000600020037000304e0006b
:100a3000060032000001780002007800b041780022
:100a400081cf5100f9ff3a00010037000001eb00af
:100a500002007800000006000400fa00889fbe0033
:100a60008a9fbe008c1f7800000478000106780081
:100a7000f80d9000780090008085550008089000df
:100a80008085550018089000808555002808900042
:100a900080855500380890008085550048089000f2
:100aa000808555000002220090bf9f0000032300b4
:100ab000a0bf9f00081090000028a30015003a0076
:100ac0000b00e000130034000b0578008a04780066
:100ad000e20f55000100360029002000c8019000f7
:100ae00009017800ee8057005800900003000100d3
:100af000500498000000e0008c003200680890006c
:100b000009004000600c9800090555004240a9000a
:100b1000eeff3c00780190000200e0000c00340081
:100b2000c80190008c00780058009000030001007c
:100b3000500498008080eb000000e0007c00320050
:100b4000e80890007800900000804000600c980059
:100b5000880c90000900e0001100340009057800bd
:100b6000e28f5400010036002a002000c8019000e6
:100b70000a017800ec805700580090000300010043
:100b8000500498000000e0006800320068089000ff
:100b90000a004000600c98008a845400edff370082
:100ba000180990000200e0000c003400c801900019
:100bb000e8009000580090000300010050049800e5
:100bc0008080eb000000e00059003200e80890004f
:100bd0001808900000804000600c9800a80c90005d
:100be0000900e0001100340009057800e28f54008c
:100bf000010036002a002000c80190000a01780098
:100c0000ec80570058009000030001005004980049
:100c10000000e00045003200680890000a00400033
:100c2000600c98008a845400edff3700380990006a
:100c30000200e0000e003400e80090001808900068
:100c400080804000c801900058009000030001001f
:100c5000500498008080eb000000e0003400320077
:100c6000e80890003808900000804000600c980070
:100c7000c80c90000900e00011003400090578005c
:100c8000e28f5400010036002a002000c8019000c5
:100c90000a017800ec805700580090000300010022
:100ca000500498000000e000200032006808900026
:100cb0000a004000600c98008a845400edff370061
:100cc000081090008000eb000028a30018003200fc
:100cd0000b00e000160034008b0478000905780052
:100ce000e28f5400010036002a002000c801900065
:100cf0000a017800ee8057005800900003000100c0
:100d0000500498000000e0000800320068089000dd
:100d10000a004000600c98008a8454004240a900f8
:100d2000eeff3c008000eb00010037008080eb000c
:100d3000010078004f0678004f05be004f04be004a
:100d40000080fa000000060001087800000006009c
:100d5000889fbe008a9fbe00e4c6b300844f510046
:100d6000be00320010003c006b425200844f510024
:100d70001800320005003c0054c2b300844f5100fb
:100d8000f600320084c5b3000f00370044c6b3003c
:100d9000844f51001400320065424200844f5100dc
:100da000f1003a001000370004c7b300844f51002f
:100db000dd0032005600350065424200844f51008c
:100dc0005300320063424200844f5100e6003a0073
:100dd0004f0037001181e90082087800f000900090
:100de00012417800de00370020629000c5c6b300d3
:100df000854f520007003a00910278006482520049
:100e0000840878001402be004fabde008603780031
:100e10001400370015c7b300854f520003003a0095
:100e2000110478006802540005003700a5c6b3001d
:100e3000854f520006003a00910478006882540001
:100e4000840878005403be004402be000500370049
:100e50001182e9008408780014027800cfa2de0035
:100e6000612bb9000498be000690be00a0609000ff
:100e700088c6b30088cf50000d00320028c6b300ea
:100e800088cf500004003a000402fb00cfa2de002d
:100e9000612bb9000800370048c7b30088cf500065
:100ea000030032006644440088cf500004003a003a
:100eb000cfa2de00612bb9000498be000690be00f0
:100ec0003002be002003be00f0009000e00f520090
:100ed000e08f5a00e00f5b00e08f5b0002003d00f6
:100ee000d4c2b30008003700001290000418a30019
:100ef00002003200b4c2b300030037000408a300ac
:100f00005100320004c2b30084f178004c00370075
:100f100020629000c5c6b300854f520008003a0019
:100f20001105780064025500840878001404be009e
:100f30006055b8000802be000a03be001400370066
:100f400015c7b300854f520003003a0091047800a2
:100f50006882540005003700a5c6b300854f5200d3
:100f600006003a00110578006802550084087800f0
:100f70005403be004402be00050037001182e900a0
:100f800084087800140278008002eb006033b80017
:100f90000498be000690be00a060900088c6b30012
:100fa00088cf50000d00320028c6b30088cf500013
:100fb00004003a000482fb008002eb006033b800ba
:100fc0000800370048c7b30088cf50000300320044
:100fd0006644440088cf500004003a008002eb00d1
:100fe0006033b8000498be000690be0080109000e8
:100ff0000138a300140032003002be002003be00fe
:10100000e00f5200e08f5a00e00f5b00e08f5b00c2
:101010000d00320081c7b300814f51000300320040
:1010200081c5b300814f510007003a00f0009000e5
:1010300004c3b30084f178008100e80082f17800f5
:101040008100e80071009800f0009000818141006b
:1010500063009800824078003e003700a061900055
:10106000c4c6b3001181e90084cf510022003200d0
:101070000a003c006442520084cf51002500320037
:1010800004c2e80084cf51001300320068425200cd
:1010900084cf51001e003a000a00370044c7b30055
:1010a00084cf51001b0032006642420084cf5100c1
:1010b000180032006942520084cf510014003a00f7
:1010c00005003700820878009200780040589000b0
:1010d000804878002c003700820878009200780061
:1010e000600a9000cfa2de00612bb9008498be0098
:1010f0008690be00240037008208780092007800b5
:1011000060099000cf91de008288be001e0037008b
:101110001181e90082087800920078006008900050
:1011200080087800180037001181e90082087800f3
:1011300012027800cfa2de00612bb9000498be0035
:101140000690be00f000900081814100630098008d
:1011500081c7b300100007000b003700f0009000bb
:1011600082f1780006003700f00090008181410094
:101170000204e00001003a0052c2b3008249780044
:101180008100e800710098000000eb004f05be00f0
:101190004f04be0000000600fc874700889fbe0089
:1011a0008a9fbe008c9fbe008e1f780000067800cc
:1011b00080c5b30080cf50000a0032007740400065
:1011c00080cf50000a0032006940400080cf5000bc
:1011d0000b0032007081200080bf9f00ae00200015
:1011e0000a0037006280200082bf9f00060037009f
:1011f0007381200083bf9f008e0020000300370012
:101200007481200084bf9f000e0120003c02be00bc
:101210002c03be000605be000404be0040c6b30099
:1012200080cf5000030032006540400080cf500066
:101230000b003a00e00f5200e08f5a00e00f5b0015
:10124000e08f5b0006003d006000b8006011b80050
:10125000040450008584580006055900878559000c
:10126000e80f57000400320040002000f00f570044
:1012700038003a000100370030002000e00f540031
:10128000e08f5c00e00f5d00e08f5d0004003a003d
:10129000dc0890008d0120000100e0000600320013
:1012a0008e00e900888060008fba9700e5c0780062
:1012b000f1ef9f007d012000800078008100e900af
:1012c000050033008b05d1000a85d3008984d30043
:1012d0000884d300f9ff3700089ebe000a96be00be
:1012e000120037008d06e9008e00e900848060005e
:1012f0000fb99700e2c1780082fd2f000f01410075
:1013000003f17e00800078008100e90005003300d1
:101310008783d1000683d3008582d3000482d30063
:10132000f9ff3700049ebe000696be003c02be00d8
:101330002c03be00e00f5200e08f5a00e00f5b006c
:10134000e08f5b008b0034000d00e000e5ff3c0007
:10135000880037002c60900081c6b300814f500098
:101360000b00320006003c000004e00008003200e0
:10137000e6c05000814f50004e003a000400370094
:10138000c1c6b300814f50004a003a002100370027
:101390000800e00004003a005c0890008d01200085
:1013a0000000e00006003200110009000e84d800a1
:1013b0000fb99700e2c07800f1ef9f007d01200097
:1013c000110009000e84d8000a003700110009003e
:1013d0000e04d8008d06e9000e81b9000204540005
:1013e0008fb8970061417c0081fd2f008f80400005
:1013f00082f07e00000478000800e0000200320065
:101400000d00e000f1ff3c00cfc4de00614db900eb
:1014100025003700e00f5400e08f5c0004003a0024
:101420005c0890008d0120000000e0000700320001
:101430006171b9000800be00860007008fb99700ef
:10144000e3417800f3ef9f007d0120006171b90056
:101450000800be0095fc07000b0037006171b90061
:101460000800be0082fc07008d06e90000f1b9000b
:10147000020454000fba9700e4427c0084fd2f0060
:101480000f02420005f27e000004be00e00f500093
:10149000e08f5800020032000d00e000efff3c003a
:1014a0004fcdde008a057800089ebe000a96be0079
:1014b00030003700e00f5400e08f5c00e00f5d006b
:1014c000e08f5d0004003a005c0890008d01200070
:1014d0000000e000090032006172b900612bb90020
:1014e0000800be000a01be00fd0007000fba970009
:1014f00064427800f4ef9f007d0120006172b90022
:10150000612bb9000800be000a01be00ed00070013
:101510000d0037006172b900612bb9000800be00f0
:101520000a01be00f20007008d06e90000f2b900d2
:10153000040454008fba970065427c0085fd2f009b
:101540008f82420084f27e00009ebe000296be00a2
:101550003c04be002c05be00e00f5400e08f5c0090
:10156000e00f5d00e08f5d00020034000d00e00040
:10157000e8ff3c00e80f570010003a000c10900004
:101580000038a3000d003200f78f560006003e0021
:1015900085fd2f008f824200e5c07e0000c3b300ae
:1015a00080cf5000050032008d06e90002c3b30071
:1015b00081fd2f008f80400082f07e007881160030
:1015c000120e98006c00900083fd2f008f81410067
:1015d0008d8041000dfd07001c089000dc08900084
:1015e000810f500006003d0000805000000e980062
:1015f0000c1090000040a100001698000f0037006a
:101600000100e0000d003d008c109000f4806000af
:10161000f08f500009003a007c099000fc00900017
:10162000810051000c099000828050000080500021
:101630004240a90001003400000e98004f077800d6
:101640004f06be004f05be004f04be00cf01b100e3
:101650000000060015fc07000400be0000000600a4
:10166000889fbe008a9fbe0030044200b0844a00ba
:1016700030054b0090854b006000b1000898be001b
:101680000a90be000440e10005c8e10006d0e10078
:1016900007d8e10002003100680040001008e800af
:1016a0004f05be004f04be0000000600889fbe002c
:1016b0008a9fbe003004be002005be0004185400fe
:1016c00005985c0006185d0007985d001100200079
:1016d0000440e10005c8e10006d0e10007d8e100c0
:1016e000010039008000eb00108810004f05be009b
:1016f0004f04be00000006001200fa00889fbe00e2
:101700008a9fbe008c9fbe00e0b79f00f1b79f008c
:1017100082bf9f0093bf9f000605be000404be0069
:101720000000eb00d0b79f00c0b79f00b0b79f008c
:10173000a0b79f0090b79f000006eb005fb1970035
:10174000cfb09700820141003fb097000200e00057
:1017500004003d00370007007e805700c0ff0700ef
:1017600003003700330007007e805700cfff0700db
:10177000dfb697000d00e0000c0035006fb2970057
:10178000ffb297000fbb97009fbb9700100020008f
:10179000010020006011b800000272008182720016
:1017a00002037300838373001b0007000c06e8002c
:1017b00001042000810f5600e0ff3a000d00e00018
:1017c00004003d000802be000a03be007e805700f0
:1017d000a3ff07005fa897000000e00005003a00a3
:1017e0001fb29700afb297003fb39700cfb39700f7
:1017f000090007006fb09700ffb097000fb997007e
:101800009fb997004f06be004f05be004f04be00b3
:101810000080fa000000060001000700000006003a
:10182000a4b79f00b5b79f00c6b79f00d7b79f006a
:10183000000006004f09de0082817100b3b79f00ef
:101840004f01de008180400082807000a1b79f00c0
:101850008fb097004f09de000000400002007000ca
:1018600090b79f007fa897004f01de008180400065
:101870008280700081b79f000d0007004f3ade00a4
:101880000000400004007000f0af9f000800070057
:101890000402420085824a0006034b0087834b0006
:1018a000dfff07000802be000a03be0000000600ba
:1018b0002fb29700bfb297004fb39700dfb39700e6
:1018c00000000600881f780018002000881f78009c
:1018d00089ff07008f87e9004f04780000000600a9
:1018e000801feb0084ff07008f87e90000000600df
:1018f000889fbe008a9fbe00e00f5000e08f580016
:10190000e00f5900e08f59000c003d006044b80022
:101910006055b8000000540081805c0002015d0049
:1019200083815d00180020001500070008003d00bd
:10193000180007000004eb00050037000004eb006e
:101940000f00070002003d001200070018002000f1
:10195000dcff07000800e000060032006022b8004b
:101960006033b8000000520081805a0002015b0021
:1019700083815b004f05be004f04be0000000600df
:10198000e00f5200e08f5a00e00f5b00e08f5b0039
:10199000000006006044b8006055b800040254001e
:1019a00085825c0006035d0087835d000000060001
:1019b000889fbe008a9fbe008c1f7800e00f5000f9
:1019c000e08f5800e00f5900e08f59000d003d00f6
:1019d0006044b8006055b8000000540081805c008d
:1019e00002015d0083815d001c0020000820e100f1
:1019f00009a8e1000ab0e1000bb8e1000d003d00cc
:101a0000080037000006eb00e00f5200e08f5a009c
:101a1000e00f5b00e08f5b0006003d006044b80013
:101a20006055b8000402540085825c0006035d0026
:101a300087835d00aaff07000c00e000060032006b
:101a40006022b8006033b8000000520081805a0064
:101a500002015b0083815b004f0678004f05be00ea
:081a60004f04be000000060067
:020000040000fa
:101a68000a5300004f46000054570000415200003e
:101a78004520000046490000464f00002072000043
:101a8800656300006569000076650000206200005b
:101a98007566000066650000722000006f76000021
:101aa80065720000727500006e200000657200000b
:101ab800726f0000720a00000055000041520000d9
:101ac8005432000020720000656300006569000060
:101ad80076650000206200007566000066650000fb
:101ae800722000006f7600006572000072750000b9
:101af8006e20000065720000726f0000720a00001c
:101b0800000000001b5b0000257500003b2500005d
:101b180075480000001b00005b3200004a1b0000f3
:101b28005b4800005379000073740000656d000085
:101b3800206900006e69000074690000616c000093
:101b4800697a000065640000210a00000d000000a9
:101b58000000000000000000db0000002000000082
:101b68001b5b0000324a00001b5b0000485300006a
:101b780079730000746500006d200000696e000034
:101b880069740000696100006c6900007a650000f2
:101b9800642100000a0d0000000000002a2a00004d
:101ba8002a2000004932000043310000505500004f
:101bb800542c0000204e0000414b00002072000011
:101bc80065740000757200006e65000064200000f6
:081bd8002a2a00002a00000087
:020000040000fa
:101be0000200fa00000f78001e0078008000eb0071
:101bf000823e20000289b900020178006002b9002b
:101c00008401780003014100833e20000300b800f6
:101c100001014100820078000001be000040220066
:101c2000410f200092fa0700000078000080e900d0
:101c30002010880000202000301088000022ef00d3
:101c40000222ef0007e2a8000080fa000000060070
:101c50000000fa000602a80000000000301080001a
:101c6000610060000000e000fcff3a000080fa0024
:101c7000000006000000fa000642a8000000000074
:101c800030108000640060000000e000fcff3a00bb
:101c90000080fa00000006000200fa00004f780001
:101ca0001e00fb00101088000000000041108000a2
:101cb00000002400008060000000e000fbff3a000c
:101cc0004110800000002800008060000000e0005b
:101cd0000200320020dd2800570107000080fa00d2
:101ce000000006000400fa002047980000000000f1
:101cf000301080007f0060000000e000fcff3a0030
:101d00000662a80000000000401080006200600031
:101d10000000e000fcff320000108000004f78005f
:101d200000000000301080007f0060000000e00034
:101d3000fcff3a002e409000614060000080fb00f4
:101d4000610060004500dd0032108000f1fd2f00d1
:101d50008100610001007000301088000682a80038
:101d60000000000030108000700060000000e00003
:101d7000fcff3a001e4078000080fa0000000600d8
:101d80000200fa00004f780011479800b0ff0700ea
:101d9000e0cfb3001e406000bfff07001e40900070
:101da000bdff0700b3ff07000080fa000000060037
:101db0000800fa0020479800210798003207980091
:101dc000a3ff0700ae409000e0cfb30000c060006a
:101dd000b1ff07000000eb00000f7800060037009d
:101de0001e007800ae009000008040001040780097
:101df000a9ff07001e0fe8003e0090009e0078003b
:101e0000808f5000f6ff35009aff07000080fa002f
:101e1000000006000400fa00004f78001107980047
:101e20008bff07001e4078000004a0009aff070007
:101e300010c0b300abff07009e0090008048780000
:101e40008cff07000080fa00000006000800fa007e
:101e5000881f7800204798002107980032079800d3
:101e60007bff07002e4090000004a0008aff0700bf
:101e70000000eb00000f7800070037001e0078001c
:101e8000ae009000008440000040eb0095ff07008a
:101e9000004c78001e0fe8003e0090000000e900b2
:101ea0009e0f5000f5ff3c001e007800ae00900031
:101eb0000084400010c0b3008aff0700004c780087
:101ec0006cff07004f0478000080fa000000060055
:101ed0006a00fa00f0d82800ea0047001c00090058
:101ee000b0587800d001b1008e0078007102b000c7
:101ef000020009008058eb006000b80050179800fd
:101f0000611798008e007800e102b0001d00090002
:101f10008018eb000040eb00004f78000040eb0021
:101f200010479800c0c5b3002047980070c2b300a6
:101f300030479800d50107008f00070000192000e6
:101f400027ff07001f0107006a004700ba000700cb
:101f5000010037000000000000a0260081012000e1
:101f6000b10107009e407800014f98009e4090000c
:101f7000114f98001c010700004f78002101070055
:101f80001047980040c6b3009e40780080cf5000b4
:101f900007003600b0c8b3009e40780080cf5000e4
:101fa00003003e000000eb00200798000900370006
:101fb0001e80fb0081072000008050000000e00030
:101fc0000200340010002000010037002000200033
:101fd000200798009e40900040c6b30080cf50007c
:101fe000070036009e409000b0c8b30080cf50007c
:101ff00003003e000000eb003007980008003700a7
:102000009e40900080c7b30080cf50000200360091
:102010003000200001003700400020003007980009
:102020000e4890009e40780080cf500002003a0099
:102030000000eb00200798009e4090001e48900092
:1020400080cf500002003a000000eb0030079800fb
:102050002e009000e10f500007003a002e40900043
:102060000004e000040032002e4090000040e9002f
:10207000204798000a0037002e009000e20f500021
:1020800007003a00ae40900070cbb30080cf500004
:1020900003003e002e4090000040e80020479800da
:1020a0003e009000e30f500007003a003e409000d1
:1020b0000004e000040032003e4090000040e900cf
:1020c000304798000a0037003e009000e40f5000af
:1020d00007003a00be409000e0c4b30080cf50003b
:1020e00003003e003e4090000040e800304798006a
:1020f0002e4090000081fb003e4090008080fb005d
:10210000a00220000e004000821f7800811f78008e
:1021100061d82800811f78007bf90700e687570007
:10212000a00220000e00400043000700a11680001e
:1021300000002200008060000000e00001003a0082
:10214000bd0007001116800000082000008060001c
:102150000000e00001003a00bc000700a11680006a
:1021600000042000008060000000e00079ff3a00d9
:10217000bb00070078ff37000000fa00008028004d
:10218000801188003222ef0030032000c011880047
:102190003422ef003342a80091118000f0f32f00a9
:1021a000008060009011880087c0a90097c0a80037
:1021b0000080fa00000006000200fa00004f7800dc
:1021c00000000000911180000020200000806000cd
:1021d0000000e000fbff3a001e80fb00a011880019
:1021e0000080fa00000006000000fa000000000075
:1021f0000140800010408000808f5000fcff3200c2
:102200003c000700104080000000e80010408800fb
:102210001140800020872000808f5000020039008c
:102220002086200010408800104080001040780078
:102230000080fa00000006000200fa00000f78009b
:10224000040037001e00780010407800daff070015
:102250001e0fe8001e007800104078000004e00027
:10226000f8ff3a000080fa00000006000800fa00bb
:1022700020079800310798000000eb00000f78005d
:1022800012003700d8ff0700204798002e4090002a
:10229000ea4f5000110032002e409000ed4f5000e8
:1022a0000e0032002e4090000004e0000b003200cf
:1022b000ae4090002e009000014878002e00900063
:1022c0000000e800200798001e0fe8003e00900084
:1022d0009e007800808f5000eaff39002e009000a9
:1022e0008040eb00014878001e0078000080fa0072
:1022f000000006000000fa009011800062006000fb
:102300000000e000030032003222a90010d62800ad
:10231000c9ff07000080fa00000006000000fa0074
:10232000dec2a8008200a9008400a9002105800067
:1023300080ff2f00008060000000a00020058800c2
:102340009400a8000080fa00000006000600fa00d1
:1023500010079800414798001e0090000040780048
:10236000004f7800ce4090001147980012002000e6
:102370008e00780000c2b3008dfe07000080fa00d6
:10238000000006000400fa00100798001e009000ec
:1023900000407800004f7800120020008e00780086
:1023a00000c2b30082fe07000e00e8008000780043
:1023b00000c2b30097fe07001e4090000080fa00a4
:1023c000000006000000fa0021c0b3001000200049
:1023d000deff070011c8b30020002000dbff07006c
:1023e0000080fa00000006000200fa0080002000d1
:1023f000e4ff0700004f78001e4078000080fa00dc
:10240000000006000200fa00a0002000ddff070027
:10241000004f78001e4078000080fa00000006009f
:102420000000fa00d3a2a800d2c2a800c0e2a8000f
:102430000080fa00000006000000fa0000db28001f
:102440007dff07000080fa00000006000000fa008f
:1024500020db280078ff07000080fa00000006005b
:102460000000fa0040db280073ff07000080fa003c
:042470000000060062
:020000040000fa
:1024740062080000100000000000000000080000d6
:10248400040000000200000062086200080000006e
:1024940028080000200000000000000004080000dc
:1024a4000200000002000000ffff000048080000d6
:1024b4001a00000002000000686a6c00747a4c0084
:1024c40000000100000200000400080000100000e9
:1024d400000020002b2d230030000000060800001f
:1024e4002200000002000000303132003334350095
:1024f4003637380039414200434445004600300035
:1025040031323300343536003738390061626300c4
:0c2514006465660000000000000000008c
:020000040000fa
:102520000000fa00c422ef00ca22ef00d022ef0020
:10253000d622ef00dc22ef00e222ef00e822ef00db
:10254000f06f2c00001688000080eb003016880029
:10255000e0012700601688000080eb0090168800dc
:10256000f03f2000c0168800f01f2300f0168800fe
:10257000f03c2f00201788006820ef006a20ef0051
:10258000c026ef00c626ef00cc26ef00d226ef00d3
:10259000d826ef00de26ef00e426ef00000c200036
:1025a000601988000080fa00000006000000fa00b0
:1025b00000002300203a88004827ef001200200086
:1025c00080072000a1092000337420008049780092
:1025d00081497800824978001200200060042000c0
:1025e000710520002374200080497800814978001b
:1025f0008249780000000000103a8000610060000d
:102600000000e000fcff3a0000000000113a8000ea
:1026100000022000008060000000e000fbff3200ac
:082620000080fa000000060032
:020000040000fa
:10262800f03fb1000180b10006003500ee0309005b
:1026380000000000403fb1000180b100fbff3d00f9
:102648001000b000203fb0000200350000800900f3
:08265800000000000000060074
:020000040000fa
:10266000000f78009e00780021408800ffff3700af
:102670000000fa008082200080077800008420009b
:10268000000188000080fa00000006000000fa0047
:10269000a3ff070007000700c4ff07000080fa003f
:1026a000000006000000fa00c0ff07000080fa00ea
:1026b000000006000000fa000080fa00000006009a
:020000040000fa
:020000040002f8
:04aff800bff900009d
:020000040000fa
:020000040002f8
:04affc007f3f000093
:00000001FF
